{"contracts/HerbTrace.sol":{"HerbTrace":{"abi":[{"inputs":[{"internalType":"string","name":"batchCode","type":"string"},{"internalType":"string","name":"stage","type":"string"},{"internalType":"string","name":"metadataHash","type":"string"}],"name":"anchorBatch","outputs":[],"stateMutability":"nonpayable","type":"function"},{"inputs":[{"internalType":"string","name":"batchCode","type":"string"}],"name":"getBatchTrace","outputs":[{"components":[{"internalType":"string","name":"batchCode","type":"string"},{"internalType":"string","name":"stage","type":"string"},{"internalType":"string","name":"metadataHash","type":"string"},{"internalType":"uint256","name":"timestamp","type":"uint256"}],"internalType":"struct HerbTrace.BatchAnchor[]","name":"","type":"tuple[]"}],"stateMutability":"view","type":"function"}],"evm":{"bytecode":{"linkReferences":{},"object":"608060405234801561001057600080fd5b50610b1d806100206000396000f3fe608060405234801561001057600080fd5b50600436106100365760003560e01c8063475959c51461003b578063909c63a51461006b575b600080fd5b610055600480360381019061005091906104d9565b610087565b60405161006291906106ed565b60405180910390f35b6100856004803603810190610080919061070f565b6102c4565b005b606060008260405161009991906107f2565b9081526020016040518091039020805480602002602001604051908101604052809291908181526020016000905b828210156102b957838290600052602060002090600402016040518060800160405290816000820180546100fa90610838565b80601f016020809104026020016040519081016040528092919081815260200182805461012690610838565b80156101735780601f1061014857610100808354040283529160200191610173565b820191906000526020600020905b81548152906001019060200180831161015657829003601f168201915b5050505050815260200160018201805461018c90610838565b80601f01602080910402602001604051908101604052809291908181526020018280546101b890610838565b80156102055780601f106101da57610100808354040283529160200191610205565b820191906000526020600020905b8154815290600101906020018083116101e857829003601f168201915b5050505050815260200160028201805461021e90610838565b80601f016020809104026020016040519081016040528092919081815260200182805461024a90610838565b80156102975780601f1061026c57610100808354040283529160200191610297565b820191906000526020600020905b81548152906001019060200180831161027a57829003601f168201915b50505050508152602001600382015481525050815260200190600101906100c7565b505050509050919050565b6000836040516102d491906107f2565b9081526020016040518091039020604051806080016040528085815260200184815260200183815260200142815250908060018154018082558091505060019003906000526020600020906004020160009091909190915060008201518160000190816103419190610a15565b5060208201518160010190816103579190610a15565b50604082015181600201908161036d9190610a15565b50606082015181600301555050505050565b6000604051905090565b600080fd5b600080fd5b600080fd5b600080fd5b6000601f19601f8301169050919050565b7f4e487b7100000000000000000000000000000000000000000000000000000000600052604160045260246000fd5b6103e68261039d565b810181811067ffffffffffffffff82111715610405576104046103ae565b5b80604052505050565b600061041861037f565b905061042482826103dd565b919050565b600067ffffffffffffffff821115610444576104436103ae565b5b61044d8261039d565b9050602081019050919050565b82818337600083830152505050565b600061047c61047784610429565b61040e565b90508281526020810184848401111561049857610497610398565b5b6104a384828561045a565b509392505050565b600082601f8301126104c0576104bf610393565b5b81356104d0848260208601610469565b91505092915050565b6000602082840312156104ef576104ee610389565b5b600082013567ffffffffffffffff81111561050d5761050c61038e565b5b610519848285016104ab565b91505092915050565b600081519050919050565b600082825260208201905092915050565b6000819050602082019050919050565b600081519050919050565b600082825260208201905092915050565b60005b8381101561058857808201518184015260208101905061056d565b60008484015250505050565b600061059f8261054e565b6105a98185610559565b93506105b981856020860161056a565b6105c28161039d565b840191505092915050565b6000819050919050565b6105e0816105cd565b82525050565b600060808301600083015184820360008601526106038282610594565b9150506020830151848203602086015261061d8282610594565b915050604083015184820360408601526106378282610594565b915050606083015161064c60608601826105d7565b508091505092915050565b600061066383836105e6565b905092915050565b6000602082019050919050565b600061068382610522565b61068d818561052d565b93508360208202850161069f8561053e565b8060005b858110156106db57848403895281516106bc8582610657565b94506106c78361066b565b925060208a019950506001810190506106a3565b50829750879550505050505092915050565b600060208201905081810360008301526107078184610678565b905092915050565b60008060006060848603121561072857610727610389565b5b600084013567ffffffffffffffff8111156107465761074561038e565b5b610752868287016104ab565b935050602084013567ffffffffffffffff8111156107735761077261038e565b5b61077f868287016104ab565b925050604084013567ffffffffffffffff8111156107a05761079f61038e565b5b6107ac868287016104ab565b9150509250925092565b600081905092915050565b60006107cc8261054e565b6107d681856107b6565b93506107e681856020860161056a565b80840191505092915050565b60006107fe82846107c1565b915081905092915050565b7f4e487b7100000000000000000000000000000000000000000000000000000000600052602260045260246000fd5b6000600282049050600182168061085057607f821691505b60208210810361086357610862610809565b5b50919050565b60008190508160005260206000209050919050565b60006020601f8301049050919050565b600082821b905092915050565b6000600883026108cb7fffffffffffffffffffffffffffffffffffffffffffffffffffffffffffffffff8261088e565b6108d5868361088e565b95508019841693508086168417925050509392505050565b6000819050919050565b600061091261090d610908846105cd565b6108ed565b6105cd565b9050919050565b6000819050919050565b61092c836108f7565b61094061093882610919565b84845461089b565b825550505050565b600090565b610955610948565b610960818484610923565b505050565b5b818110156109845761097960008261094d565b600181019050610966565b5050565b601f8211156109c95761099a81610869565b6109a38461087e565b810160208510156109b2578190505b6109c66109be8561087e565b830182610965565b50505b505050565b600082821c905092915050565b60006109ec600019846008026109ce565b1980831691505092915050565b6000610a0583836109db565b9150826002028217905092915050565b610a1e8261054e565b67ffffffffffffffff811115610a3757610a366103ae565b5b610a418254610838565b610a4c828285610988565b600060209050601f831160018114610a7f5760008415610a6d578287015190505b610a7785826109f9565b865550610adf565b601f198416610a8d86610869565b60005b82811015610ab557848901518255600182019150602085019450602081019050610a90565b86831015610ad25784890151610ace601f8916826109db565b8355505b6001600288020188555050505b50505050505056fea264697066735822122008392b7d0863554e6ed3ad5b1c92061ea21833f4e8f20cac4f5eb3d7988b811c64736f6c63430008180033","opcodes":"PUSH1 0x80 PUSH1 0x40 MSTORE CALLVALUE DUP1 ISZERO PUSH2 0x10 JUMPI PUSH1 0x0 DUP1 REVERT JUMPDEST POP PUSH2 0xB1D DUP1 PUSH2 0x20 PUSH1 0x0 CODECOPY PUSH1 0x0 RETURN INVALID PUSH1 0x80 PUSH1 0x40 MSTORE CALLVALUE DUP1 ISZERO PUSH2 0x10 JUMPI PUSH1 0x0 DUP1 REVERT JUMPDEST POP PUSH1 0x4 CALLDATASIZE LT PUSH2 0x36 JUMPI PUSH1 0x0 CALLDATALOAD PUSH1 0xE0 SHR DUP1 PUSH4 0x475959C5 EQ PUSH2 0x3B JUMPI DUP1 PUSH4 0x909C63A5 EQ PUSH2 0x6B JUMPI JUMPDEST PUSH1 0x0 DUP1 REVERT JUMPDEST PUSH2 0x55 PUSH1 0x4 DUP1 CALLDATASIZE SUB DUP2 ADD SWAP1 PUSH2 0x50 SWAP2 SWAP1 PUSH2 0x4D9 JUMP JUMPDEST PUSH2 0x87 JUMP JUMPDEST PUSH1 0x40 MLOAD PUSH2 0x62 SWAP2 SWAP1 PUSH2 0x6ED JUMP JUMPDEST PUSH1 0x40 MLOAD DUP1 SWAP2 SUB SWAP1 RETURN JUMPDEST PUSH2 0x85 PUSH1 0x4 DUP1 CALLDATASIZE SUB DUP2 ADD SWAP1 PUSH2 0x80 SWAP2 SWAP1 PUSH2 0x70F JUMP JUMPDEST PUSH2 0x2C4 JUMP JUMPDEST STOP JUMPDEST PUSH1 0x60 PUSH1 0x0 DUP3 PUSH1 0x40 MLOAD PUSH2 0x99 SWAP2 SWAP1 PUSH2 0x7F2 JUMP JUMPDEST SWAP1 DUP2 MSTORE PUSH1 0x20 ADD PUSH1 0x40 MLOAD DUP1 SWAP2 SUB SWAP1 KECCAK256 DUP1 SLOAD DUP1 PUSH1 0x20 MUL PUSH1 0x20 ADD PUSH1 0x40 MLOAD SWAP1 DUP2 ADD PUSH1 0x40 MSTORE DUP1 SWAP3 SWAP2 SWAP1 DUP2 DUP2 MSTORE PUSH1 0x20 ADD PUSH1 0x0 SWAP1 JUMPDEST DUP3 DUP3 LT ISZERO PUSH2 0x2B9 JUMPI DUP4 DUP3 SWAP1 PUSH1 0x0 MSTORE PUSH1 0x20 PUSH1 0x0 KECCAK256 SWAP1 PUSH1 0x4 MUL ADD PUSH1 0x40 MLOAD DUP1 PUSH1 0x80 ADD PUSH1 0x40 MSTORE SWAP1 DUP2 PUSH1 0x0 DUP3 ADD DUP1 SLOAD PUSH2 0xFA SWAP1 PUSH2 0x838 JUMP JUMPDEST DUP1 PUSH1 0x1F ADD PUSH1 0x20 DUP1 SWAP2 DIV MUL PUSH1 0x20 ADD PUSH1 0x40 MLOAD SWAP1 DUP2 ADD PUSH1 0x40 MSTORE DUP1 SWAP3 SWAP2 SWAP1 DUP2 DUP2 MSTORE PUSH1 0x20 ADD DUP3 DUP1 SLOAD PUSH2 0x126 SWAP1 PUSH2 0x838 JUMP JUMPDEST DUP1 ISZERO PUSH2 0x173 JUMPI DUP1 PUSH1 0x1F LT PUSH2 0x148 JUMPI PUSH2 0x100 DUP1 DUP4 SLOAD DIV MUL DUP4 MSTORE SWAP2 PUSH1 0x20 ADD SWAP2 PUSH2 0x173 JUMP JUMPDEST DUP3 ADD SWAP2 SWAP1 PUSH1 0x0 MSTORE PUSH1 0x20 PUSH1 0x0 KECCAK256 SWAP1 JUMPDEST DUP2 SLOAD DUP2 MSTORE SWAP1 PUSH1 0x1 ADD SWAP1 PUSH1 0x20 ADD DUP1 DUP4 GT PUSH2 0x156 JUMPI DUP3 SWAP1 SUB PUSH1 0x1F AND DUP3 ADD SWAP2 JUMPDEST POP POP POP POP POP DUP2 MSTORE PUSH1 0x20 ADD PUSH1 0x1 DUP3 ADD DUP1 SLOAD PUSH2 0x18C SWAP1 PUSH2 0x838 JUMP JUMPDEST DUP1 PUSH1 0x1F ADD PUSH1 0x20 DUP1 SWAP2 DIV MUL PUSH1 0x20 ADD PUSH1 0x40 MLOAD SWAP1 DUP2 ADD PUSH1 0x40 MSTORE DUP1 SWAP3 SWAP2 SWAP1 DUP2 DUP2 MSTORE PUSH1 0x20 ADD DUP3 DUP1 SLOAD PUSH2 0x1B8 SWAP1 PUSH2 0x838 JUMP JUMPDEST DUP1 ISZERO PUSH2 0x205 JUMPI DUP1 PUSH1 0x1F LT PUSH2 0x1DA JUMPI PUSH2 0x100 DUP1 DUP4 SLOAD DIV MUL DUP4 MSTORE SWAP2 PUSH1 0x20 ADD SWAP2 PUSH2 0x205 JUMP JUMPDEST DUP3 ADD SWAP2 SWAP1 PUSH1 0x0 MSTORE PUSH1 0x20 PUSH1 0x0 KECCAK256 SWAP1 JUMPDEST DUP2 SLOAD DUP2 MSTORE SWAP1 PUSH1 0x1 ADD SWAP1 PUSH1 0x20 ADD DUP1 DUP4 GT PUSH2 0x1E8 JUMPI DUP3 SWAP1 SUB PUSH1 0x1F AND DUP3 ADD SWAP2 JUMPDEST POP POP POP POP POP DUP2 MSTORE PUSH1 0x20 ADD PUSH1 0x2 DUP3 ADD DUP1 SLOAD PUSH2 0x21E SWAP1 PUSH2 0x838 JUMP JUMPDEST DUP1 PUSH1 0x1F ADD PUSH1 0x20 DUP1 SWAP2 DIV MUL PUSH1 0x20 ADD PUSH1 0x40 MLOAD SWAP1 DUP2 ADD PUSH1 0x40 MSTORE DUP1 SWAP3 SWAP2 SWAP1 DUP2 DUP2 MSTORE PUSH1 0x20 ADD DUP3 DUP1 SLOAD PUSH2 0x24A SWAP1 PUSH2 0x838 JUMP JUMPDEST DUP1 ISZERO PUSH2 0x297 JUMPI DUP1 PUSH1 0x1F LT PUSH2 0x26C JUMPI PUSH2 0x100 DUP1 DUP4 SLOAD DIV MUL DUP4 MSTORE SWAP2 PUSH1 0x20 ADD SWAP2 PUSH2 0x297 JUMP JUMPDEST DUP3 ADD SWAP2 SWAP1 PUSH1 0x0 MSTORE PUSH1 0x20 PUSH1 0x0 KECCAK256 SWAP1 JUMPDEST DUP2 SLOAD DUP2 MSTORE SWAP1 PUSH1 0x1 ADD SWAP1 PUSH1 0x20 ADD DUP1 DUP4 GT PUSH2 0x27A JUMPI DUP3 SWAP1 SUB PUSH1 0x1F AND DUP3 ADD SWAP2 JUMPDEST POP POP POP POP POP DUP2 MSTORE PUSH1 0x20 ADD PUSH1 0x3 DUP3 ADD SLOAD DUP2 MSTORE POP POP DUP2 MSTORE PUSH1 0x20 ADD SWAP1 PUSH1 0x1 ADD SWAP1 PUSH2 0xC7 JUMP JUMPDEST POP POP POP POP SWAP1 POP SWAP2 SWAP1 POP JUMP JUMPDEST PUSH1 0x0 DUP4 PUSH1 0x40 MLOAD PUSH2 0x2D4 SWAP2 SWAP1 PUSH2 0x7F2 JUMP JUMPDEST SWAP1 DUP2 MSTORE PUSH1 0x20 ADD PUSH1 0x40 MLOAD DUP1 SWAP2 SUB SWAP1 KECCAK256 PUSH1 0x40 MLOAD DUP1 PUSH1 0x80 ADD PUSH1 0x40 MSTORE DUP1 DUP6 DUP2 MSTORE PUSH1 0x20 ADD DUP5 DUP2 MSTORE PUSH1 0x20 ADD DUP4 DUP2 MSTORE PUSH1 0x20 ADD TIMESTAMP DUP2 MSTORE POP SWAP1 DUP1 PUSH1 0x1 DUP2 SLOAD ADD DUP1 DUP3 SSTORE DUP1 SWAP2 POP POP PUSH1 0x1 SWAP1 SUB SWAP1 PUSH1 0x0 MSTORE PUSH1 0x20 PUSH1 0x0 KECCAK256 SWAP1 PUSH1 0x4 MUL ADD PUSH1 0x0 SWAP1 SWAP2 SWAP1 SWAP2 SWAP1 SWAP2 POP PUSH1 0x0 DUP3 ADD MLOAD DUP2 PUSH1 0x0 ADD SWAP1 DUP2 PUSH2 0x341 SWAP2 SWAP1 PUSH2 0xA15 JUMP JUMPDEST POP PUSH1 0x20 DUP3 ADD MLOAD DUP2 PUSH1 0x1 ADD SWAP1 DUP2 PUSH2 0x357 SWAP2 SWAP1 PUSH2 0xA15 JUMP JUMPDEST POP PUSH1 0x40 DUP3 ADD MLOAD DUP2 PUSH1 0x2 ADD SWAP1 DUP2 PUSH2 0x36D SWAP2 SWAP1 PUSH2 0xA15 JUMP JUMPDEST POP PUSH1 0x60 DUP3 ADD MLOAD DUP2 PUSH1 0x3 ADD SSTORE POP POP POP POP POP JUMP JUMPDEST PUSH1 0x0 PUSH1 0x40 MLOAD SWAP1 POP SWAP1 JUMP JUMPDEST PUSH1 0x0 DUP1 REVERT JUMPDEST PUSH1 0x0 DUP1 REVERT JUMPDEST PUSH1 0x0 DUP1 REVERT JUMPDEST PUSH1 0x0 DUP1 REVERT JUMPDEST PUSH1 0x0 PUSH1 0x1F NOT PUSH1 0x1F DUP4 ADD AND SWAP1 POP SWAP2 SWAP1 POP JUMP JUMPDEST PUSH32 0x4E487B7100000000000000000000000000000000000000000000000000000000 PUSH1 0x0 MSTORE PUSH1 0x41 PUSH1 0x4 MSTORE PUSH1 0x24 PUSH1 0x0 REVERT JUMPDEST PUSH2 0x3E6 DUP3 PUSH2 0x39D JUMP JUMPDEST DUP2 ADD DUP2 DUP2 LT PUSH8 0xFFFFFFFFFFFFFFFF DUP3 GT OR ISZERO PUSH2 0x405 JUMPI PUSH2 0x404 PUSH2 0x3AE JUMP JUMPDEST JUMPDEST DUP1 PUSH1 0x40 MSTORE POP POP POP JUMP JUMPDEST PUSH1 0x0 PUSH2 0x418 PUSH2 0x37F JUMP JUMPDEST SWAP1 POP PUSH2 0x424 DUP3 DUP3 PUSH2 0x3DD JUMP JUMPDEST SWAP2 SWAP1 POP JUMP JUMPDEST PUSH1 0x0 PUSH8 0xFFFFFFFFFFFFFFFF DUP3 GT ISZERO PUSH2 0x444 JUMPI PUSH2 0x443 PUSH2 0x3AE JUMP JUMPDEST JUMPDEST PUSH2 0x44D DUP3 PUSH2 0x39D JUMP JUMPDEST SWAP1 POP PUSH1 0x20 DUP2 ADD SWAP1 POP SWAP2 SWAP1 POP JUMP JUMPDEST DUP3 DUP2 DUP4 CALLDATACOPY PUSH1 0x0 DUP4 DUP4 ADD MSTORE POP POP POP JUMP JUMPDEST PUSH1 0x0 PUSH2 0x47C PUSH2 0x477 DUP5 PUSH2 0x429 JUMP JUMPDEST PUSH2 0x40E JUMP JUMPDEST SWAP1 POP DUP3 DUP2 MSTORE PUSH1 0x20 DUP2 ADD DUP5 DUP5 DUP5 ADD GT ISZERO PUSH2 0x498 JUMPI PUSH2 0x497 PUSH2 0x398 JUMP JUMPDEST JUMPDEST PUSH2 0x4A3 DUP5 DUP3 DUP6 PUSH2 0x45A JUMP JUMPDEST POP SWAP4 SWAP3 POP POP POP JUMP JUMPDEST PUSH1 0x0 DUP3 PUSH1 0x1F DUP4 ADD SLT PUSH2 0x4C0 JUMPI PUSH2 0x4BF PUSH2 0x393 JUMP JUMPDEST JUMPDEST DUP2 CALLDATALOAD PUSH2 0x4D0 DUP5 DUP3 PUSH1 0x20 DUP7 ADD PUSH2 0x469 JUMP JUMPDEST SWAP2 POP POP SWAP3 SWAP2 POP POP JUMP JUMPDEST PUSH1 0x0 PUSH1 0x20 DUP3 DUP5 SUB SLT ISZERO PUSH2 0x4EF JUMPI PUSH2 0x4EE PUSH2 0x389 JUMP JUMPDEST JUMPDEST PUSH1 0x0 DUP3 ADD CALLDATALOAD PUSH8 0xFFFFFFFFFFFFFFFF DUP2 GT ISZERO PUSH2 0x50D JUMPI PUSH2 0x50C PUSH2 0x38E JUMP JUMPDEST JUMPDEST PUSH2 0x519 DUP5 DUP3 DUP6 ADD PUSH2 0x4AB JUMP JUMPDEST SWAP2 POP POP SWAP3 SWAP2 POP POP JUMP JUMPDEST PUSH1 0x0 DUP2 MLOAD SWAP1 POP SWAP2 SWAP1 POP JUMP JUMPDEST PUSH1 0x0 DUP3 DUP3 MSTORE PUSH1 0x20 DUP3 ADD SWAP1 POP SWAP3 SWAP2 POP POP JUMP JUMPDEST PUSH1 0x0 DUP2 SWAP1 POP PUSH1 0x20 DUP3 ADD SWAP1 POP SWAP2 SWAP1 POP JUMP JUMPDEST PUSH1 0x0 DUP2 MLOAD SWAP1 POP SWAP2 SWAP1 POP JUMP JUMPDEST PUSH1 0x0 DUP3 DUP3 MSTORE PUSH1 0x20 DUP3 ADD SWAP1 POP SWAP3 SWAP2 POP POP JUMP JUMPDEST PUSH1 0x0 JUMPDEST DUP4 DUP2 LT ISZERO PUSH2 0x588 JUMPI DUP1 DUP3 ADD MLOAD DUP2 DUP5 ADD MSTORE PUSH1 0x20 DUP2 ADD SWAP1 POP PUSH2 0x56D JUMP JUMPDEST PUSH1 0x0 DUP5 DUP5 ADD MSTORE POP POP POP POP JUMP JUMPDEST PUSH1 0x0 PUSH2 0x59F DUP3 PUSH2 0x54E JUMP JUMPDEST PUSH2 0x5A9 DUP2 DUP6 PUSH2 0x559 JUMP JUMPDEST SWAP4 POP PUSH2 0x5B9 DUP2 DUP6 PUSH1 0x20 DUP7 ADD PUSH2 0x56A JUMP JUMPDEST PUSH2 0x5C2 DUP2 PUSH2 0x39D JUMP JUMPDEST DUP5 ADD SWAP2 POP POP SWAP3 SWAP2 POP POP JUMP JUMPDEST PUSH1 0x0 DUP2 SWAP1 POP SWAP2 SWAP1 POP JUMP JUMPDEST PUSH2 0x5E0 DUP2 PUSH2 0x5CD JUMP JUMPDEST DUP3 MSTORE POP POP JUMP JUMPDEST PUSH1 0x0 PUSH1 0x80 DUP4 ADD PUSH1 0x0 DUP4 ADD MLOAD DUP5 DUP3 SUB PUSH1 0x0 DUP7 ADD MSTORE PUSH2 0x603 DUP3 DUP3 PUSH2 0x594 JUMP JUMPDEST SWAP2 POP POP PUSH1 0x20 DUP4 ADD MLOAD DUP5 DUP3 SUB PUSH1 0x20 DUP7 ADD MSTORE PUSH2 0x61D DUP3 DUP3 PUSH2 0x594 JUMP JUMPDEST SWAP2 POP POP PUSH1 0x40 DUP4 ADD MLOAD DUP5 DUP3 SUB PUSH1 0x40 DUP7 ADD MSTORE PUSH2 0x637 DUP3 DUP3 PUSH2 0x594 JUMP JUMPDEST SWAP2 POP POP PUSH1 0x60 DUP4 ADD MLOAD PUSH2 0x64C PUSH1 0x60 DUP7 ADD DUP3 PUSH2 0x5D7 JUMP JUMPDEST POP DUP1 SWAP2 POP POP SWAP3 SWAP2 POP POP JUMP JUMPDEST PUSH1 0x0 PUSH2 0x663 DUP4 DUP4 PUSH2 0x5E6 JUMP JUMPDEST SWAP1 POP SWAP3 SWAP2 POP POP JUMP JUMPDEST PUSH1 0x0 PUSH1 0x20 DUP3 ADD SWAP1 POP SWAP2 SWAP1 POP JUMP JUMPDEST PUSH1 0x0 PUSH2 0x683 DUP3 PUSH2 0x522 JUMP JUMPDEST PUSH2 0x68D DUP2 DUP6 PUSH2 0x52D JUMP JUMPDEST SWAP4 POP DUP4 PUSH1 0x20 DUP3 MUL DUP6 ADD PUSH2 0x69F DUP6 PUSH2 0x53E JUMP JUMPDEST DUP1 PUSH1 0x0 JUMPDEST DUP6 DUP2 LT ISZERO PUSH2 0x6DB JUMPI DUP5 DUP5 SUB DUP10 MSTORE DUP2 MLOAD PUSH2 0x6BC DUP6 DUP3 PUSH2 0x657 JUMP JUMPDEST SWAP5 POP PUSH2 0x6C7 DUP4 PUSH2 0x66B JUMP JUMPDEST SWAP3 POP PUSH1 0x20 DUP11 ADD SWAP10 POP POP PUSH1 0x1 DUP2 ADD SWAP1 POP PUSH2 0x6A3 JUMP JUMPDEST POP DUP3 SWAP8 POP DUP8 SWAP6 POP POP POP POP POP POP SWAP3 SWAP2 POP POP JUMP JUMPDEST PUSH1 0x0 PUSH1 0x20 DUP3 ADD SWAP1 POP DUP2 DUP2 SUB PUSH1 0x0 DUP4 ADD MSTORE PUSH2 0x707 DUP2 DUP5 PUSH2 0x678 JUMP JUMPDEST SWAP1 POP SWAP3 SWAP2 POP POP JUMP JUMPDEST PUSH1 0x0 DUP1 PUSH1 0x0 PUSH1 0x60 DUP5 DUP7 SUB SLT ISZERO PUSH2 0x728 JUMPI PUSH2 0x727 PUSH2 0x389 JUMP JUMPDEST JUMPDEST PUSH1 0x0 DUP5 ADD CALLDATALOAD PUSH8 0xFFFFFFFFFFFFFFFF DUP2 GT ISZERO PUSH2 0x746 JUMPI PUSH2 0x745 PUSH2 0x38E JUMP JUMPDEST JUMPDEST PUSH2 0x752 DUP7 DUP3 DUP8 ADD PUSH2 0x4AB JUMP JUMPDEST SWAP4 POP POP PUSH1 0x20 DUP5 ADD CALLDATALOAD PUSH8 0xFFFFFFFFFFFFFFFF DUP2 GT ISZERO PUSH2 0x773 JUMPI PUSH2 0x772 PUSH2 0x38E JUMP JUMPDEST JUMPDEST PUSH2 0x77F DUP7 DUP3 DUP8 ADD PUSH2 0x4AB JUMP JUMPDEST SWAP3 POP POP PUSH1 0x40 DUP5 ADD CALLDATALOAD PUSH8 0xFFFFFFFFFFFFFFFF DUP2 GT ISZERO PUSH2 0x7A0 JUMPI PUSH2 0x79F PUSH2 0x38E JUMP JUMPDEST JUMPDEST PUSH2 0x7AC DUP7 DUP3 DUP8 ADD PUSH2 0x4AB JUMP JUMPDEST SWAP2 POP POP SWAP3 POP SWAP3 POP SWAP3 JUMP JUMPDEST PUSH1 0x0 DUP2 SWAP1 POP SWAP3 SWAP2 POP POP JUMP JUMPDEST PUSH1 0x0 PUSH2 0x7CC DUP3 PUSH2 0x54E JUMP JUMPDEST PUSH2 0x7D6 DUP2 DUP6 PUSH2 0x7B6 JUMP JUMPDEST SWAP4 POP PUSH2 0x7E6 DUP2 DUP6 PUSH1 0x20 DUP7 ADD PUSH2 0x56A JUMP JUMPDEST DUP1 DUP5 ADD SWAP2 POP POP SWAP3 SWAP2 POP POP JUMP JUMPDEST PUSH1 0x0 PUSH2 0x7FE DUP3 DUP5 PUSH2 0x7C1 JUMP JUMPDEST SWAP2 POP DUP2 SWAP1 POP SWAP3 SWAP2 POP POP JUMP JUMPDEST PUSH32 0x4E487B7100000000000000000000000000000000000000000000000000000000 PUSH1 0x0 MSTORE PUSH1 0x22 PUSH1 0x4 MSTORE PUSH1 0x24 PUSH1 0x0 REVERT JUMPDEST PUSH1 0x0 PUSH1 0x2 DUP3 DIV SWAP1 POP PUSH1 0x1 DUP3 AND DUP1 PUSH2 0x850 JUMPI PUSH1 0x7F DUP3 AND SWAP2 POP JUMPDEST PUSH1 0x20 DUP3 LT DUP2 SUB PUSH2 0x863 JUMPI PUSH2 0x862 PUSH2 0x809 JUMP JUMPDEST JUMPDEST POP SWAP2 SWAP1 POP JUMP JUMPDEST PUSH1 0x0 DUP2 SWAP1 POP DUP2 PUSH1 0x0 MSTORE PUSH1 0x20 PUSH1 0x0 KECCAK256 SWAP1 POP SWAP2 SWAP1 POP JUMP JUMPDEST PUSH1 0x0 PUSH1 0x20 PUSH1 0x1F DUP4 ADD DIV SWAP1 POP SWAP2 SWAP1 POP JUMP JUMPDEST PUSH1 0x0 DUP3 DUP3 SHL SWAP1 POP SWAP3 SWAP2 POP POP JUMP JUMPDEST PUSH1 0x0 PUSH1 0x8 DUP4 MUL PUSH2 0x8CB PUSH32 0xFFFFFFFFFFFFFFFFFFFFFFFFFFFFFFFFFFFFFFFFFFFFFFFFFFFFFFFFFFFFFFFF DUP3 PUSH2 0x88E JUMP JUMPDEST PUSH2 0x8D5 DUP7 DUP4 PUSH2 0x88E JUMP JUMPDEST SWAP6 POP DUP1 NOT DUP5 AND SWAP4 POP DUP1 DUP7 AND DUP5 OR SWAP3 POP POP POP SWAP4 SWAP3 POP POP POP JUMP JUMPDEST PUSH1 0x0 DUP2 SWAP1 POP SWAP2 SWAP1 POP JUMP JUMPDEST PUSH1 0x0 PUSH2 0x912 PUSH2 0x90D PUSH2 0x908 DUP5 PUSH2 0x5CD JUMP JUMPDEST PUSH2 0x8ED JUMP JUMPDEST PUSH2 0x5CD JUMP JUMPDEST SWAP1 POP SWAP2 SWAP1 POP JUMP JUMPDEST PUSH1 0x0 DUP2 SWAP1 POP SWAP2 SWAP1 POP JUMP JUMPDEST PUSH2 0x92C DUP4 PUSH2 0x8F7 JUMP JUMPDEST PUSH2 0x940 PUSH2 0x938 DUP3 PUSH2 0x919 JUMP JUMPDEST DUP5 DUP5 SLOAD PUSH2 0x89B JUMP JUMPDEST DUP3 SSTORE POP POP POP POP JUMP JUMPDEST PUSH1 0x0 SWAP1 JUMP JUMPDEST PUSH2 0x955 PUSH2 0x948 JUMP JUMPDEST PUSH2 0x960 DUP2 DUP5 DUP5 PUSH2 0x923 JUMP JUMPDEST POP POP POP JUMP JUMPDEST JUMPDEST DUP2 DUP2 LT ISZERO PUSH2 0x984 JUMPI PUSH2 0x979 PUSH1 0x0 DUP3 PUSH2 0x94D JUMP JUMPDEST PUSH1 0x1 DUP2 ADD SWAP1 POP PUSH2 0x966 JUMP JUMPDEST POP POP JUMP JUMPDEST PUSH1 0x1F DUP3 GT ISZERO PUSH2 0x9C9 JUMPI PUSH2 0x99A DUP2 PUSH2 0x869 JUMP JUMPDEST PUSH2 0x9A3 DUP5 PUSH2 0x87E JUMP JUMPDEST DUP2 ADD PUSH1 0x20 DUP6 LT ISZERO PUSH2 0x9B2 JUMPI DUP2 SWAP1 POP JUMPDEST PUSH2 0x9C6 PUSH2 0x9BE DUP6 PUSH2 0x87E JUMP JUMPDEST DUP4 ADD DUP3 PUSH2 0x965 JUMP JUMPDEST POP POP JUMPDEST POP POP POP JUMP JUMPDEST PUSH1 0x0 DUP3 DUP3 SHR SWAP1 POP SWAP3 SWAP2 POP POP JUMP JUMPDEST PUSH1 0x0 PUSH2 0x9EC PUSH1 0x0 NOT DUP5 PUSH1 0x8 MUL PUSH2 0x9CE JUMP JUMPDEST NOT DUP1 DUP4 AND SWAP2 POP POP SWAP3 SWAP2 POP POP JUMP JUMPDEST PUSH1 0x0 PUSH2 0xA05 DUP4 DUP4 PUSH2 0x9DB JUMP JUMPDEST SWAP2 POP DUP3 PUSH1 0x2 MUL DUP3 OR SWAP1 POP SWAP3 SWAP2 POP POP JUMP JUMPDEST PUSH2 0xA1E DUP3 PUSH2 0x54E JUMP JUMPDEST PUSH8 0xFFFFFFFFFFFFFFFF DUP2 GT ISZERO PUSH2 0xA37 JUMPI PUSH2 0xA36 PUSH2 0x3AE JUMP JUMPDEST JUMPDEST PUSH2 0xA41 DUP3 SLOAD PUSH2 0x838 JUMP JUMPDEST PUSH2 0xA4C DUP3 DUP3 DUP6 PUSH2 0x988 JUMP JUMPDEST PUSH1 0x0 PUSH1 0x20 SWAP1 POP PUSH1 0x1F DUP4 GT PUSH1 0x1 DUP2 EQ PUSH2 0xA7F JUMPI PUSH1 0x0 DUP5 ISZERO PUSH2 0xA6D JUMPI DUP3 DUP8 ADD MLOAD SWAP1 POP JUMPDEST PUSH2 0xA77 DUP6 DUP3 PUSH2 0x9F9 JUMP JUMPDEST DUP7 SSTORE POP PUSH2 0xADF JUMP JUMPDEST PUSH1 0x1F NOT DUP5 AND PUSH2 0xA8D DUP7 PUSH2 0x869 JUMP JUMPDEST PUSH1 0x0 JUMPDEST DUP3 DUP2 LT ISZERO PUSH2 0xAB5 JUMPI DUP5 DUP10 ADD MLOAD DUP3 SSTORE PUSH1 0x1 DUP3 ADD SWAP2 POP PUSH1 0x20 DUP6 ADD SWAP5 POP PUSH1 0x20 DUP2 ADD SWAP1 POP PUSH2 0xA90 JUMP JUMPDEST DUP7 DUP4 LT ISZERO PUSH2 0xAD2 JUMPI DUP5 DUP10 ADD MLOAD PUSH2 0xACE PUSH1 0x1F DUP10 AND DUP3 PUSH2 0x9DB JUMP JUMPDEST DUP4 SSTORE POP JUMPDEST PUSH1 0x1 PUSH1 0x2 DUP9 MUL ADD DUP9 SSTORE POP POP POP JUMPDEST POP POP POP POP POP POP JUMP INVALID LOG2 PUSH5 0x6970667358 0x22 SLT KECCAK256 ADDMOD CODECOPY 0x2B PUSH30 0x863554E6ED3AD5B1C92061EA21833F4E8F20CAC4F5EB3D7988B811C6473 PUSH16 0x6C634300081800330000000000000000 "},"methodIdentifiers":{"anchorBatch(string,string,string)":"909c63a5","getBatchTrace(string)":"475959c5"}}}}}