{
  "_format": "hh-sol-artifact-1",
  "contractName": "HerbTrace",
  "sourceName": "contracts/HerbTrace.sol",
  "abi": [
    {
      "inputs": [
        {
          "internalType": "string",
          "name": "batchCode",
          "type": "string"
        },
        {
          "internalType": "string",
          "name": "stage",
          "type": "string"
        },
        {
          "internalType": "string",
          "name": "metadataHash",
          "type": "string"
        }
      ],
      "name": "anchorBatch",
      "outputs": [],
      "stateMutability": "nonpayable",
      "type": "function"
    },
    {
      "inputs": [
        {
          "internalType": "string",
          "name": "batchCode",
          "type": "string"
        }
      ],
      "name": "getBatchTrace",
      "outputs": [
        {
          "components": [
            {
              "internalType": "string",
              "name": "batchCode",
              "type": "string"
            },
            {
              "internalType": "string",
              "name": "stage",
              "type": "string"
            },
            {
              "internalType": "string",
              "name": "metadataHash",
              "type": "string"
            },
            {
              "internalType": "uint256",
              "name": "timestamp",
              "type": "uint256"
            }
          ],
          "internalType": "struct HerbTrace.BatchAnchor[]",
          "name": "",
          "type": "tuple[]"
        }
      ],
      "stateMutability": "view",
      "type": "function"
    }
  ],
  "bytecode": "0x608060405234801561001057600080fd5b50610b1d806100206000396000f3fe608060405234801561001057600080fd5b50600436106100365760003560e01c8063475959c51461003b578063909c63a51461006b575b600080fd5b610055600480360381019061005091906104d9565b610087565b60405161006291906106ed565b60405180910390f35b6100856004803603810190610080919061070f565b6102c4565b005b606060008260405161009991906107f2565b9081526020016040518091039020805480602002602001604051908101604052809291908181526020016000905b828210156102b957838290600052602060002090600402016040518060800160405290816000820180546100fa90610838565b80601f016020809104026020016040519081016040528092919081815260200182805461012690610838565b80156101735780601f1061014857610100808354040283529160200191610173565b820191906000526020600020905b81548152906001019060200180831161015657829003601f168201915b5050505050815260200160018201805461018c90610838565b80601f01602080910402602001604051908101604052809291908181526020018280546101b890610838565b80156102055780601f106101da57610100808354040283529160200191610205565b820191906000526020600020905b8154815290600101906020018083116101e857829003601f168201915b5050505050815260200160028201805461021e90610838565b80601f016020809104026020016040519081016040528092919081815260200182805461024a90610838565b80156102975780601f1061026c57610100808354040283529160200191610297565b820191906000526020600020905b81548152906001019060200180831161027a57829003601f168201915b50505050508152602001600382015481525050815260200190600101906100c7565b505050509050919050565b6000836040516102d491906107f2565b9081526020016040518091039020604051806080016040528085815260200184815260200183815260200142815250908060018154018082558091505060019003906000526020600020906004020160009091909190915060008201518160000190816103419190610a15565b5060208201518160010190816103579190610a15565b50604082015181600201908161036d9190610a15565b50606082015181600301555050505050565b6000604051905090565b600080fd5b600080fd5b600080fd5b600080fd5b6000601f19601f8301169050919050565b7f4e487b7100000000000000000000000000000000000000000000000000000000600052604160045260246000fd5b6103e68261039d565b810181811067ffffffffffffffff82111715610405576104046103ae565b5b80604052505050565b600061041861037f565b905061042482826103dd565b919050565b600067ffffffffffffffff821115610444576104436103ae565b5b61044d8261039d565b9050602081019050919050565b82818337600083830152505050565b600061047c61047784610429565b61040e565b90508281526020810184848401111561049857610497610398565b5b6104a384828561045a565b509392505050565b600082601f8301126104c0576104bf610393565b5b81356104d0848260208601610469565b91505092915050565b6000602082840312156104ef576104ee610389565b5b600082013567ffffffffffffffff81111561050d5761050c61038e565b5b610519848285016104ab565b91505092915050565b600081519050919050565b600082825260208201905092915050565b6000819050602082019050919050565b600081519050919050565b600082825260208201905092915050565b60005b8381101561058857808201518184015260208101905061056d565b60008484015250505050565b600061059f8261054e565b6105a98185610559565b93506105b981856020860161056a565b6105c28161039d565b840191505092915050565b6000819050919050565b6105e0816105cd565b82525050565b600060808301600083015184820360008601526106038282610594565b9150506020830151848203602086015261061d8282610594565b915050604083015184820360408601526106378282610594565b915050606083015161064c60608601826105d7565b508091505092915050565b600061066383836105e6565b905092915050565b6000602082019050919050565b600061068382610522565b61068d818561052d565b93508360208202850161069f8561053e565b8060005b858110156106db57848403895281516106bc8582610657565b94506106c78361066b565b925060208a019950506001810190506106a3565b50829750879550505050505092915050565b600060208201905081810360008301526107078184610678565b905092915050565b60008060006060848603121561072857610727610389565b5b600084013567ffffffffffffffff8111156107465761074561038e565b5b610752868287016104ab565b935050602084013567ffffffffffffffff8111156107735761077261038e565b5b61077f868287016104ab565b925050604084013567ffffffffffffffff8111156107a05761079f61038e565b5b6107ac868287016104ab565b9150509250925092565b600081905092915050565b60006107cc8261054e565b6107d681856107b6565b93506107e681856020860161056a565b80840191505092915050565b60006107fe82846107c1565b915081905092915050565b7f4e487b7100000000000000000000000000000000000000000000000000000000600052602260045260246000fd5b6000600282049050600182168061085057607f821691505b60208210810361086357610862610809565b5b50919050565b60008190508160005260206000209050919050565b60006020601f8301049050919050565b600082821b905092915050565b6000600883026108cb7fffffffffffffffffffffffffffffffffffffffffffffffffffffffffffffffff8261088e565b6108d5868361088e565b95508019841693508086168417925050509392505050565b6000819050919050565b600061091261090d610908846105cd565b6108ed565b6105cd565b9050919050565b6000819050919050565b61092c836108f7565b61094061093882610919565b84845461089b565b825550505050565b600090565b610955610948565b610960818484610923565b505050565b5b818110156109845761097960008261094d565b600181019050610966565b5050565b601f8211156109c95761099a81610869565b6109a38461087e565b810160208510156109b2578190505b6109c66109be8561087e565b830182610965565b50505b505050565b600082821c905092915050565b60006109ec600019846008026109ce565b1980831691505092915050565b6000610a0583836109db565b9150826002028217905092915050565b610a1e8261054e565b67ffffffffffffffff811115610a3757610a366103ae565b5b610a418254610838565b610a4c828285610988565b600060209050601f831160018114610a7f5760008415610a6d578287015190505b610a7785826109f9565b865550610adf565b601f198416610a8d86610869565b60005b82811015610ab557848901518255600182019150602085019450602081019050610a90565b86831015610ad25784890151610ace601f8916826109db565b8355505b6001600288020188555050505b50505050505056fea264697066735822122008392b7d0863554e6ed3ad5b1c92061ea21833f4e8f20cac4f5eb3d7988b811c64736f6c63430008180033",
  "linkReferences": {},
  "deployedLinkReferences": {}
}